{
  "contractName": "TokenFarm",
  "abi": [
    {
      "inputs": [
        {
          "internalType": "address",
          "name": "_dappTokenAddress",
          "type": "address"
        }
      ],
      "stateMutability": "nonpayable",
      "type": "constructor"
    },
    {
      "anonymous": false,
      "inputs": [
        {
          "indexed": true,
          "internalType": "bytes32",
          "name": "id",
          "type": "bytes32"
        }
      ],
      "name": "ChainlinkCancelled",
      "type": "event"
    },
    {
      "anonymous": false,
      "inputs": [
        {
          "indexed": true,
          "internalType": "bytes32",
          "name": "id",
          "type": "bytes32"
        }
      ],
      "name": "ChainlinkFulfilled",
      "type": "event"
    },
    {
      "anonymous": false,
      "inputs": [
        {
          "indexed": true,
          "internalType": "bytes32",
          "name": "id",
          "type": "bytes32"
        }
      ],
      "name": "ChainlinkRequested",
      "type": "event"
    },
    {
      "anonymous": false,
      "inputs": [
        {
          "indexed": true,
          "internalType": "address",
          "name": "previousOwner",
          "type": "address"
        },
        {
          "indexed": true,
          "internalType": "address",
          "name": "newOwner",
          "type": "address"
        }
      ],
      "name": "OwnershipTransferred",
      "type": "event"
    },
    {
      "inputs": [],
      "name": "dappToken",
      "outputs": [
        {
          "internalType": "contract IERC20",
          "name": "",
          "type": "address"
        }
      ],
      "stateMutability": "view",
      "type": "function",
      "constant": true
    },
    {
      "inputs": [],
      "name": "name",
      "outputs": [
        {
          "internalType": "string",
          "name": "",
          "type": "string"
        }
      ],
      "stateMutability": "view",
      "type": "function",
      "constant": true
    },
    {
      "inputs": [],
      "name": "owner",
      "outputs": [
        {
          "internalType": "address",
          "name": "",
          "type": "address"
        }
      ],
      "stateMutability": "view",
      "type": "function",
      "constant": true
    },
    {
      "inputs": [],
      "name": "renounceOwnership",
      "outputs": [],
      "stateMutability": "nonpayable",
      "type": "function"
    },
    {
      "inputs": [
        {
          "internalType": "uint256",
          "name": "",
          "type": "uint256"
        }
      ],
      "name": "stakers",
      "outputs": [
        {
          "internalType": "address",
          "name": "",
          "type": "address"
        }
      ],
      "stateMutability": "view",
      "type": "function",
      "constant": true
    },
    {
      "inputs": [
        {
          "internalType": "address",
          "name": "",
          "type": "address"
        },
        {
          "internalType": "address",
          "name": "",
          "type": "address"
        }
      ],
      "name": "stakingBalance",
      "outputs": [
        {
          "internalType": "uint256",
          "name": "",
          "type": "uint256"
        }
      ],
      "stateMutability": "view",
      "type": "function",
      "constant": true
    },
    {
      "inputs": [
        {
          "internalType": "address",
          "name": "",
          "type": "address"
        }
      ],
      "name": "tokenPriceFeedMapping",
      "outputs": [
        {
          "internalType": "address",
          "name": "",
          "type": "address"
        }
      ],
      "stateMutability": "view",
      "type": "function",
      "constant": true
    },
    {
      "inputs": [
        {
          "internalType": "address",
          "name": "newOwner",
          "type": "address"
        }
      ],
      "name": "transferOwnership",
      "outputs": [],
      "stateMutability": "nonpayable",
      "type": "function"
    },
    {
      "inputs": [
        {
          "internalType": "address",
          "name": "",
          "type": "address"
        }
      ],
      "name": "uniqueTokensStaked",
      "outputs": [
        {
          "internalType": "uint256",
          "name": "",
          "type": "uint256"
        }
      ],
      "stateMutability": "view",
      "type": "function",
      "constant": true
    },
    {
      "inputs": [
        {
          "internalType": "address",
          "name": "token",
          "type": "address"
        }
      ],
      "name": "addAllowedTokens",
      "outputs": [],
      "stateMutability": "nonpayable",
      "type": "function"
    },
    {
      "inputs": [
        {
          "internalType": "address",
          "name": "token",
          "type": "address"
        },
        {
          "internalType": "address",
          "name": "priceFeed",
          "type": "address"
        }
      ],
      "name": "setPriceFeedContract",
      "outputs": [],
      "stateMutability": "nonpayable",
      "type": "function"
    },
    {
      "inputs": [
        {
          "internalType": "uint256",
          "name": "_amount",
          "type": "uint256"
        },
        {
          "internalType": "address",
          "name": "token",
          "type": "address"
        }
      ],
      "name": "stakeTokens",
      "outputs": [],
      "stateMutability": "nonpayable",
      "type": "function"
    },
    {
      "inputs": [
        {
          "internalType": "address",
          "name": "token",
          "type": "address"
        }
      ],
      "name": "unstakeTokens",
      "outputs": [],
      "stateMutability": "nonpayable",
      "type": "function"
    },
    {
      "inputs": [
        {
          "internalType": "address",
          "name": "user",
          "type": "address"
        }
      ],
      "name": "getUserTotalValue",
      "outputs": [
        {
          "internalType": "uint256",
          "name": "",
          "type": "uint256"
        }
      ],
      "stateMutability": "view",
      "type": "function",
      "constant": true
    },
    {
      "inputs": [
        {
          "internalType": "address",
          "name": "token",
          "type": "address"
        }
      ],
      "name": "tokenIsAllowed",
      "outputs": [
        {
          "internalType": "bool",
          "name": "",
          "type": "bool"
        }
      ],
      "stateMutability": "nonpayable",
      "type": "function"
    },
    {
      "inputs": [
        {
          "internalType": "address",
          "name": "user",
          "type": "address"
        },
        {
          "internalType": "address",
          "name": "token",
          "type": "address"
        }
      ],
      "name": "getUserStakingBalanceEthValue",
      "outputs": [
        {
          "internalType": "uint256",
          "name": "",
          "type": "uint256"
        }
      ],
      "stateMutability": "view",
      "type": "function",
      "constant": true
    },
    {
      "inputs": [],
      "name": "issueTokens",
      "outputs": [],
      "stateMutability": "nonpayable",
      "type": "function"
    },
    {
      "inputs": [
        {
          "internalType": "address",
          "name": "token",
          "type": "address"
        }
      ],
      "name": "getTokenEthPrice",
      "outputs": [
        {
          "internalType": "uint256",
          "name": "",
          "type": "uint256"
        }
      ],
      "stateMutability": "view",
      "type": "function",
      "constant": true
    }
  ],
  "bytecode": "0x608060405260016004556040518060400160405280600f81526020017f4461707020546f6b656e204661726d000000000000000000000000000000000081525060079080519060200190620000569291906200018b565b503480156200006457600080fd5b50604051620021913803806200219183398181016040528101906200008a919062000252565b60006200009c6200018360201b60201c565b905080600660006101000a81548173ffffffffffffffffffffffffffffffffffffffff021916908373ffffffffffffffffffffffffffffffffffffffff1602179055508073ffffffffffffffffffffffffffffffffffffffff16600073ffffffffffffffffffffffffffffffffffffffff167f8be0079c531659141344cd1fd0a4f28419497f9722a3daafe3b4186f6b6457e060405160405180910390a35080600860006101000a81548173ffffffffffffffffffffffffffffffffffffffff021916908373ffffffffffffffffffffffffffffffffffffffff1602179055505062000331565b600033905090565b8280546200019990620002b2565b90600052602060002090601f016020900481019282620001bd576000855562000209565b82601f10620001d857805160ff191683800117855562000209565b8280016001018555821562000209579182015b8281111562000208578251825591602001919060010190620001eb565b5b5090506200021891906200021c565b5090565b5b80821115620002375760008160009055506001016200021d565b5090565b6000815190506200024c8162000317565b92915050565b6000602082840312156200026557600080fd5b600062000275848285016200023b565b91505092915050565b60006200028b8262000292565b9050919050565b600073ffffffffffffffffffffffffffffffffffffffff82169050919050565b60006002820490506001821680620002cb57607f821691505b60208210811415620002e257620002e1620002e8565b5b50919050565b7f4e487b7100000000000000000000000000000000000000000000000000000000600052602260045260246000fd5b62000322816200027e565b81146200032e57600080fd5b50565b611e5080620003416000396000f3fe608060405234801561001057600080fd5b50600436106101165760003560e01c8063877dd39d116100a2578063cc81e06011610071578063cc81e060146102b9578063dd5b8467146102e9578063df00018d14610319578063f2fde38b14610349578063fd5e6dd11461036557610116565b8063877dd39d1461021f5780638da5cb5b1461023b578063af3f5e2214610259578063b83e02341461028957610116565b806329161a00116100e957806329161a00146101a15780632d1ad8b8146101d15780635eb186f8146101ed57806360ab58521461020b578063715018a61461021557610116565b806306fdde031461011b5780630bea440d14610139578063171e44ea1461015557806327927b3e14610171575b600080fd5b610123610395565b60405161013091906119e1565b60405180910390f35b610153600480360381019061014e91906116e2565b610423565b005b61016f600480360381019061016a919061162b565b6106c7565b005b61018b6004803603810190610186919061162b565b6107a9565b6040516101989190611930565b60405180910390f35b6101bb60048036038101906101b69190611654565b6107dc565b6040516101c89190611a83565b60405180910390f35b6101eb60048036038101906101e6919061162b565b610801565b005b6101f5610a68565b60405161020291906119c6565b60405180910390f35b610213610a8e565b005b61021d610c52565b005b61023960048036038101906102349190611654565b610d8f565b005b610243610e8d565b6040516102509190611930565b60405180910390f35b610273600480360381019061026e919061162b565b610eb7565b6040516102809190611a83565b60405180910390f35b6102a3600480360381019061029e919061162b565b610faf565b6040516102b09190611a83565b60405180910390f35b6102d360048036038101906102ce9190611654565b610fc7565b6040516102e09190611a83565b60405180910390f35b61030360048036038101906102fe919061162b565b6110c4565b60405161031091906119ab565b60405180910390f35b610333600480360381019061032e919061162b565b611199565b6040516103409190611a83565b60405180910390f35b610363600480360381019061035e919061162b565b6112a2565b005b61037f600480360381019061037a91906116b9565b61144e565b60405161038c9190611930565b60405180910390f35b600780546103a290611c8e565b80601f01602080910402602001604051908101604052809291908181526020018280546103ce90611c8e565b801561041b5780601f106103f05761010080835404028352916020019161041b565b820191906000526020600020905b8154815290600101906020018083116103fe57829003601f168201915b505050505081565b60008211610466576040517f08c379a000000000000000000000000000000000000000000000000000000000815260040161045d90611a63565b60405180910390fd5b61046f816110c4565b156106c35761047e338261148d565b8073ffffffffffffffffffffffffffffffffffffffff166323b872dd3330856040518463ffffffff1660e01b81526004016104bb9392919061194b565b602060405180830381600087803b1580156104d557600080fd5b505af11580156104e9573d6000803e3d6000fd5b505050506040513d601f19601f8201168201806040525081019061050d9190611690565b5081600a60008373ffffffffffffffffffffffffffffffffffffffff1673ffffffffffffffffffffffffffffffffffffffff16815260200190815260200160002060003373ffffffffffffffffffffffffffffffffffffffff1673ffffffffffffffffffffffffffffffffffffffff168152602001908152602001600020546105969190611aba565b600a60008373ffffffffffffffffffffffffffffffffffffffff1673ffffffffffffffffffffffffffffffffffffffff16815260200190815260200160002060003373ffffffffffffffffffffffffffffffffffffffff1673ffffffffffffffffffffffffffffffffffffffff168152602001908152602001600020819055506001600b60003373ffffffffffffffffffffffffffffffffffffffff1673ffffffffffffffffffffffffffffffffffffffff1681526020019081526020016000205414156106c2576009339080600181540180825580915050600190039060005260206000200160009091909190916101000a81548173ffffffffffffffffffffffffffffffffffffffff021916908373ffffffffffffffffffffffffffffffffffffffff1602179055505b5b5050565b6106cf6115a5565b73ffffffffffffffffffffffffffffffffffffffff166106ed610e8d565b73ffffffffffffffffffffffffffffffffffffffff1614610743576040517f08c379a000000000000000000000000000000000000000000000000000000000815260040161073a90611a43565b60405180910390fd5b600d819080600181540180825580915050600190039060005260206000200160009091909190916101000a81548173ffffffffffffffffffffffffffffffffffffffff021916908373ffffffffffffffffffffffffffffffffffffffff16021790555050565b600c6020528060005260406000206000915054906101000a900473ffffffffffffffffffffffffffffffffffffffff1681565b600a602052816000526040600020602052806000526040600020600091509150505481565b6000600a60008373ffffffffffffffffffffffffffffffffffffffff1673ffffffffffffffffffffffffffffffffffffffff16815260200190815260200160002060003373ffffffffffffffffffffffffffffffffffffffff1673ffffffffffffffffffffffffffffffffffffffff168152602001908152602001600020549050600081116108c5576040517f08c379a00000000000000000000000000000000000000000000000000000000081526004016108bc90611a23565b60405180910390fd5b8173ffffffffffffffffffffffffffffffffffffffff1663a9059cbb33836040518363ffffffff1660e01b8152600401610900929190611982565b602060405180830381600087803b15801561091a57600080fd5b505af115801561092e573d6000803e3d6000fd5b505050506040513d601f19601f820116820180604052508101906109529190611690565b506000600a60008473ffffffffffffffffffffffffffffffffffffffff1673ffffffffffffffffffffffffffffffffffffffff16815260200190815260200160002060003373ffffffffffffffffffffffffffffffffffffffff1673ffffffffffffffffffffffffffffffffffffffff168152602001908152602001600020819055506001600b60003373ffffffffffffffffffffffffffffffffffffffff1673ffffffffffffffffffffffffffffffffffffffff16815260200190815260200160002054610a219190611b9b565b600b60003373ffffffffffffffffffffffffffffffffffffffff1673ffffffffffffffffffffffffffffffffffffffff168152602001908152602001600020819055505050565b600860009054906101000a900473ffffffffffffffffffffffffffffffffffffffff1681565b610a966115a5565b73ffffffffffffffffffffffffffffffffffffffff16610ab4610e8d565b73ffffffffffffffffffffffffffffffffffffffff1614610b0a576040517f08c379a0000000000000000000000000000000000000000000000000000000008152600401610b0190611a43565b60405180910390fd5b60005b600980549050811015610c4f57600060098281548110610b56577f4e487b7100000000000000000000000000000000000000000000000000000000600052603260045260246000fd5b9060005260206000200160009054906101000a900473ffffffffffffffffffffffffffffffffffffffff169050600860009054906101000a900473ffffffffffffffffffffffffffffffffffffffff1673ffffffffffffffffffffffffffffffffffffffff1663a9059cbb82610bcb84610eb7565b6040518363ffffffff1660e01b8152600401610be8929190611982565b602060405180830381600087803b158015610c0257600080fd5b505af1158015610c16573d6000803e3d6000fd5b505050506040513d601f19601f82011682018060405250810190610c3a9190611690565b50508080610c4790611cc0565b915050610b0d565b50565b610c5a6115a5565b73ffffffffffffffffffffffffffffffffffffffff16610c78610e8d565b73ffffffffffffffffffffffffffffffffffffffff1614610cce576040517f08c379a0000000000000000000000000000000000000000000000000000000008152600401610cc590611a43565b60405180910390fd5b600073ffffffffffffffffffffffffffffffffffffffff16600660009054906101000a900473ffffffffffffffffffffffffffffffffffffffff1673ffffffffffffffffffffffffffffffffffffffff167f8be0079c531659141344cd1fd0a4f28419497f9722a3daafe3b4186f6b6457e060405160405180910390a36000600660006101000a81548173ffffffffffffffffffffffffffffffffffffffff021916908373ffffffffffffffffffffffffffffffffffffffff160217905550565b610d976115a5565b73ffffffffffffffffffffffffffffffffffffffff16610db5610e8d565b73ffffffffffffffffffffffffffffffffffffffff1614610e0b576040517f08c379a0000000000000000000000000000000000000000000000000000000008152600401610e0290611a43565b60405180910390fd5b80600c60008473ffffffffffffffffffffffffffffffffffffffff1673ffffffffffffffffffffffffffffffffffffffff16815260200190815260200160002060006101000a81548173ffffffffffffffffffffffffffffffffffffffff021916908373ffffffffffffffffffffffffffffffffffffffff1602179055505050565b6000600660009054906101000a900473ffffffffffffffffffffffffffffffffffffffff16905090565b600080600090506000600b60008573ffffffffffffffffffffffffffffffffffffffff1673ffffffffffffffffffffffffffffffffffffffff168152602001908152602001600020541115610fa65760005b600d80549050811015610fa457610f8484600d8381548110610f54577f4e487b7100000000000000000000000000000000000000000000000000000000600052603260045260246000fd5b9060005260206000200160009054906101000a900473ffffffffffffffffffffffffffffffffffffffff16610fc7565b82610f8f9190611aba565b91508080610f9c90611cc0565b915050610f09565b505b80915050919050565b600b6020528060005260406000206000915090505481565b600080600b60008573ffffffffffffffffffffffffffffffffffffffff1673ffffffffffffffffffffffffffffffffffffffff168152602001908152602001600020541161101857600090506110be565b670de0b6b3a764000061102a83611199565b600a60008573ffffffffffffffffffffffffffffffffffffffff1673ffffffffffffffffffffffffffffffffffffffff16815260200190815260200160002060008673ffffffffffffffffffffffffffffffffffffffff1673ffffffffffffffffffffffffffffffffffffffff168152602001908152602001600020546110b19190611b41565b6110bb9190611b10565b90505b92915050565b600080600090505b600d8054905081101561118e578273ffffffffffffffffffffffffffffffffffffffff16600d828154811061112a577f4e487b7100000000000000000000000000000000000000000000000000000000600052603260045260246000fd5b9060005260206000200160009054906101000a900473ffffffffffffffffffffffffffffffffffffffff1673ffffffffffffffffffffffffffffffffffffffff16141561117b576001915050611194565b808061118690611cc0565b9150506110cc565b50600090505b919050565b600080600c60008473ffffffffffffffffffffffffffffffffffffffff1673ffffffffffffffffffffffffffffffffffffffff16815260200190815260200160002060009054906101000a900473ffffffffffffffffffffffffffffffffffffffff169050600081905060008060008060008573ffffffffffffffffffffffffffffffffffffffff1663feaf968c6040518163ffffffff1660e01b815260040160a06040518083038186803b15801561125157600080fd5b505afa158015611265573d6000803e3d6000fd5b505050506040513d601f19601f82011682018060405250810190611289919061171e565b9450945094509450945083975050505050505050919050565b6112aa6115a5565b73ffffffffffffffffffffffffffffffffffffffff166112c8610e8d565b73ffffffffffffffffffffffffffffffffffffffff161461131e576040517f08c379a000000000000000000000000000000000000000000000000000000000815260040161131590611a43565b60405180910390fd5b600073ffffffffffffffffffffffffffffffffffffffff168173ffffffffffffffffffffffffffffffffffffffff16141561138e576040517f08c379a000000000000000000000000000000000000000000000000000000000815260040161138590611a03565b60405180910390fd5b8073ffffffffffffffffffffffffffffffffffffffff16600660009054906101000a900473ffffffffffffffffffffffffffffffffffffffff1673ffffffffffffffffffffffffffffffffffffffff167f8be0079c531659141344cd1fd0a4f28419497f9722a3daafe3b4186f6b6457e060405160405180910390a380600660006101000a81548173ffffffffffffffffffffffffffffffffffffffff021916908373ffffffffffffffffffffffffffffffffffffffff16021790555050565b6009818154811061145e57600080fd5b906000526020600020016000915054906101000a900473ffffffffffffffffffffffffffffffffffffffff1681565b6000600a60008373ffffffffffffffffffffffffffffffffffffffff1673ffffffffffffffffffffffffffffffffffffffff16815260200190815260200160002060008473ffffffffffffffffffffffffffffffffffffffff1673ffffffffffffffffffffffffffffffffffffffff16815260200190815260200160002054116115a1576001600b60008473ffffffffffffffffffffffffffffffffffffffff1673ffffffffffffffffffffffffffffffffffffffff1681526020019081526020016000205461155d9190611aba565b600b60008473ffffffffffffffffffffffffffffffffffffffff1673ffffffffffffffffffffffffffffffffffffffff168152602001908152602001600020819055505b5050565b600033905090565b6000813590506115bc81611da7565b92915050565b6000815190506115d181611dbe565b92915050565b6000815190506115e681611dd5565b92915050565b6000813590506115fb81611dec565b92915050565b60008151905061161081611dec565b92915050565b60008151905061162581611e03565b92915050565b60006020828403121561163d57600080fd5b600061164b848285016115ad565b91505092915050565b6000806040838503121561166757600080fd5b6000611675858286016115ad565b9250506020611686858286016115ad565b9150509250929050565b6000602082840312156116a257600080fd5b60006116b0848285016115c2565b91505092915050565b6000602082840312156116cb57600080fd5b60006116d9848285016115ec565b91505092915050565b600080604083850312156116f557600080fd5b6000611703858286016115ec565b9250506020611714858286016115ad565b9150509250929050565b600080600080600060a0868803121561173657600080fd5b600061174488828901611616565b9550506020611755888289016115d7565b945050604061176688828901611601565b935050606061177788828901611601565b925050608061178888828901611616565b9150509295509295909350565b61179e81611bcf565b82525050565b6117ad81611be1565b82525050565b6117bc81611c37565b82525050565b60006117cd82611a9e565b6117d78185611aa9565b93506117e7818560208601611c5b565b6117f081611d96565b840191505092915050565b6000611808602683611aa9565b91507f4f776e61626c653a206e6577206f776e657220697320746865207a65726f206160008301527f64647265737300000000000000000000000000000000000000000000000000006020830152604082019050919050565b600061186e601b83611aa9565b91507f7374616b696e672062616c616e63652063616e6e6f74206265203000000000006000830152602082019050919050565b60006118ae602083611aa9565b91507f4f776e61626c653a2063616c6c6572206973206e6f7420746865206f776e65726000830152602082019050919050565b60006118ee601283611aa9565b91507f616d6f756e742063616e6e6f74206265203000000000000000000000000000006000830152602082019050919050565b61192a81611c17565b82525050565b60006020820190506119456000830184611795565b92915050565b60006060820190506119606000830186611795565b61196d6020830185611795565b61197a6040830184611921565b949350505050565b60006040820190506119976000830185611795565b6119a46020830184611921565b9392505050565b60006020820190506119c060008301846117a4565b92915050565b60006020820190506119db60008301846117b3565b92915050565b600060208201905081810360008301526119fb81846117c2565b905092915050565b60006020820190508181036000830152611a1c816117fb565b9050919050565b60006020820190508181036000830152611a3c81611861565b9050919050565b60006020820190508181036000830152611a5c816118a1565b9050919050565b60006020820190508181036000830152611a7c816118e1565b9050919050565b6000602082019050611a986000830184611921565b92915050565b600081519050919050565b600082825260208201905092915050565b6000611ac582611c17565b9150611ad083611c17565b9250827fffffffffffffffffffffffffffffffffffffffffffffffffffffffffffffffff03821115611b0557611b04611d09565b5b828201905092915050565b6000611b1b82611c17565b9150611b2683611c17565b925082611b3657611b35611d38565b5b828204905092915050565b6000611b4c82611c17565b9150611b5783611c17565b9250817fffffffffffffffffffffffffffffffffffffffffffffffffffffffffffffffff0483118215151615611b9057611b8f611d09565b5b828202905092915050565b6000611ba682611c17565b9150611bb183611c17565b925082821015611bc457611bc3611d09565b5b828203905092915050565b6000611bda82611bf7565b9050919050565b60008115159050919050565b6000819050919050565b600073ffffffffffffffffffffffffffffffffffffffff82169050919050565b6000819050919050565b600069ffffffffffffffffffff82169050919050565b6000611c4282611c49565b9050919050565b6000611c5482611bf7565b9050919050565b60005b83811015611c79578082015181840152602081019050611c5e565b83811115611c88576000848401525b50505050565b60006002820490506001821680611ca657607f821691505b60208210811415611cba57611cb9611d67565b5b50919050565b6000611ccb82611c17565b91507fffffffffffffffffffffffffffffffffffffffffffffffffffffffffffffffff821415611cfe57611cfd611d09565b5b600182019050919050565b7f4e487b7100000000000000000000000000000000000000000000000000000000600052601160045260246000fd5b7f4e487b7100000000000000000000000000000000000000000000000000000000600052601260045260246000fd5b7f4e487b7100000000000000000000000000000000000000000000000000000000600052602260045260246000fd5b6000601f19601f8301169050919050565b611db081611bcf565b8114611dbb57600080fd5b50565b611dc781611be1565b8114611dd257600080fd5b50565b611dde81611bed565b8114611de957600080fd5b50565b611df581611c17565b8114611e0057600080fd5b50565b611e0c81611c21565b8114611e1757600080fd5b5056fea2646970667358221220bb599b727f0df4f97ef2ede9241d8206f649c524614617260edc1645751db66864736f6c63430008000033",
  "immutableReferences": {},
  "source": "pragma solidity 0.8.0;\r\n\r\nimport \"@chainlink/contracts/src/v0.8/interfaces/AggregatorV3Interface.sol\";\r\nimport \"@chainlink/contracts/src/v0.8/dev/ChainlinkClient.sol\";\r\nimport \"@openzeppelin/contracts/token/ERC20/IERC20.sol\";\r\nimport \"@openzeppelin/contracts/access/Ownable.sol\";\r\n\r\ncontract TokenFarm is ChainlinkClient, Ownable {\r\n    string public name = \"Dapp Token Farm\";\r\n    IERC20 public dappToken;\r\n\r\n    address[] public stakers;\r\n    // token > address\r\n    mapping(address => mapping(address => uint256)) public stakingBalance;\r\n    mapping(address => uint256) public uniqueTokensStaked;\r\n    mapping(address => address) public tokenPriceFeedMapping;\r\n    address[] allowedTokens;\r\n\r\n    constructor(address _dappTokenAddress) public {\r\n        dappToken = IERC20(_dappTokenAddress);\r\n    }\r\n\r\n    function addAllowedTokens(address token) public onlyOwner {\r\n        allowedTokens.push(token);\r\n    }\r\n\r\n    function setPriceFeedContract(address token, address priceFeed)\r\n        public\r\n        onlyOwner\r\n    {\r\n        tokenPriceFeedMapping[token] = priceFeed;\r\n    }\r\n\r\n    function stakeTokens(uint256 _amount, address token) public {\r\n        // Require amount greater than 0\r\n        require(_amount > 0, \"amount cannot be 0\");\r\n        if (tokenIsAllowed(token)) {\r\n            updateUniqueTokensStaked(msg.sender, token);\r\n            IERC20(token).transferFrom(msg.sender, address(this), _amount);\r\n            stakingBalance[token][msg.sender] =\r\n                stakingBalance[token][msg.sender] +\r\n                _amount;\r\n            if (uniqueTokensStaked[msg.sender] == 1) {\r\n                stakers.push(msg.sender);\r\n            }\r\n        }\r\n    }\r\n\r\n    // Unstaking Tokens (Withdraw)\r\n    function unstakeTokens(address token) public {\r\n        // Fetch staking balance\r\n        uint256 balance = stakingBalance[token][msg.sender];\r\n        require(balance > 0, \"staking balance cannot be 0\");\r\n        IERC20(token).transfer(msg.sender, balance);\r\n        stakingBalance[token][msg.sender] = 0;\r\n        uniqueTokensStaked[msg.sender] = uniqueTokensStaked[msg.sender] - 1;\r\n    }\r\n\r\n    function getUserTotalValue(address user) public view returns (uint256) {\r\n        uint256 totalValue = 0;\r\n        if (uniqueTokensStaked[user] > 0) {\r\n            for (\r\n                uint256 allowedTokensIndex = 0;\r\n                allowedTokensIndex < allowedTokens.length;\r\n                allowedTokensIndex++\r\n            ) {\r\n                totalValue =\r\n                    totalValue +\r\n                    getUserStakingBalanceEthValue(\r\n                        user,\r\n                        allowedTokens[allowedTokensIndex]\r\n                    );\r\n            }\r\n        }\r\n        return totalValue;\r\n    }\r\n\r\n    function tokenIsAllowed(address token) public returns (bool) {\r\n        for (\r\n            uint256 allowedTokensIndex = 0;\r\n            allowedTokensIndex < allowedTokens.length;\r\n            allowedTokensIndex++\r\n        ) {\r\n            if (allowedTokens[allowedTokensIndex] == token) {\r\n                return true;\r\n            }\r\n        }\r\n        return false;\r\n    }\r\n\r\n    function updateUniqueTokensStaked(address user, address token) internal {\r\n        if (stakingBalance[token][user] <= 0) {\r\n            uniqueTokensStaked[user] = uniqueTokensStaked[user] + 1;\r\n        }\r\n    }\r\n\r\n    function getUserStakingBalanceEthValue(address user, address token)\r\n        public\r\n        view\r\n        returns (uint256)\r\n    {\r\n        if (uniqueTokensStaked[user] <= 0) {\r\n            return 0;\r\n        }\r\n        return\r\n            (stakingBalance[token][user] * getTokenEthPrice(token)) / (10**18);\r\n    }\r\n\r\n    // Issuing Tokens\r\n    function issueTokens() public onlyOwner {\r\n        // Issue tokens to all stakers\r\n        for (\r\n            uint256 stakersIndex = 0;\r\n            stakersIndex < stakers.length;\r\n            stakersIndex++\r\n        ) {\r\n            address recipient = stakers[stakersIndex];\r\n            dappToken.transfer(recipient, getUserTotalValue(recipient));\r\n        }\r\n    }\r\n\r\n    function getTokenEthPrice(address token) public view returns (uint256) {\r\n        address priceFeedAddress = tokenPriceFeedMapping[token];\r\n        AggregatorV3Interface priceFeed = AggregatorV3Interface(\r\n            priceFeedAddress\r\n        );\r\n        (\r\n            uint80 roundID,\r\n            int256 price,\r\n            uint256 startedAt,\r\n            uint256 timeStamp,\r\n            uint80 answeredInRound\r\n        ) = priceFeed.latestRoundData();\r\n        return uint256(price);\r\n    }\r\n}",
  "sourcePath": "C:/Users/SalimRahal/Desktop/Alyra/staking-reactjs/contracts/TokenFarm.sol",
  "compiler": {
    "name": "solc",
    "version": "0.8.0+commit.c7dfd78e.Emscripten.clang"
  },
  "schemaVersion": "3.3.4",
  "updatedAt": "2021-06-28T10:05:02.059Z",
  "networkType": "ethereum",
  "devdoc": {
    "kind": "dev",
    "methods": {
      "owner()": {
        "details": "Returns the address of the current owner."
      },
      "renounceOwnership()": {
        "details": "Leaves the contract without owner. It will not be possible to call `onlyOwner` functions anymore. Can only be called by the current owner. NOTE: Renouncing ownership will leave the contract without an owner, thereby removing any functionality that is only available to the owner."
      },
      "transferOwnership(address)": {
        "details": "Transfers ownership of the contract to a new account (`newOwner`). Can only be called by the current owner."
      }
    },
    "version": 1
  },
  "userdoc": {
    "kind": "user",
    "methods": {},
    "version": 1
  }
}